:100000000C942A000C9484000C94AB000C94D20045
:100010000C9447000C9447000C9447000C94420841
:100020000C94F9000C9420010C9447000C944700A8
:100030000C9447000C9447000C9447000C94470024
:100040000C9447000C9447000C9447000C94470014
:100050000C94470011241FBECFE5D8E0DEBFCDBF12
:1000600010E0A0E6B0E0E2EDF0E102C005900D92F4
:10007000AA38B107D9F726E0AAE8B0E001C01D927E
:10008000A23DB207E1F70E9452000C9467080C945D
:100090000000EC01CE010E94BF018AE090E00E94C6
:1000A0007206F8CFCF93DF93CDB7DEB728970FB6A0
:1000B000F894DEBF0FBECDBF88E0E1E6F0E0DE01E0
:1000C000119601900D928A95E1F7CE0101960E945A
:1000D0004701E12CF12C01E029E630E044E650E054
:1000E00061E770E089E490E00E94120302E027E7F4
:1000F00030E044E650E06FE770E089E490E00E9471
:1001000012030E944304FFCF1F920F920FB60F926B
:1001100011242F933F934F935F936F937F938F930C
:100120009F93AF93BF93EF93FF93E0918E00F09175
:100130008F000995FF91EF91BF91AF919F918F91A2
:100140007F916F915F914F913F912F910F900FBED3
:100150000F901F9018951F920F920FB60F921124B7
:100160002F933F934F935F936F937F938F939F93BF
:10017000AF93BF93EF93FF93E0918C00F0918D00CC
:100180000995FF91EF91BF91AF919F918F917F91D1
:100190006F915F914F913F912F910F900FBE0F90F4
:1001A0001F9018951F920F920FB60F9211242F9344
:1001B0003F934F935F936F937F938F939F93AF93EF
:1001C000BF93EF93FF93E0918A00F0918B00099524
:1001D000FF91EF91BF91AF919F918F917F916F911F
:1001E0005F914F913F912F910F900FBE0F901F90F5
:1001F00018951F920F920FB60F9211242F933F93D1
:100200004F935F936F937F938F939F93AF93BF931E
:10021000EF93FF93E0919200F09193000995FF9185
:10022000EF91BF91AF919F918F917F916F915F916E
:100230004F913F912F910F900FBE0F901F901895E7
:100240001F920F920FB60F9211242F933F934F934B
:100250005F936F937F938F939F93AF93BF93EF932E
:10026000FF93E0919000F09191000995FF91EF913B
:10027000BF91AF919F918F917F916F915F914F91BE
:100280003F912F910F900FBE0F901F901895CF9315
:10029000DF93EC018A818130E9F4599A2881398110
:1002A000C901A0E0B0E0880F991FAA1FBB1F880FEB
:1002B000991FAA1FBB1F9C01AD01220F331F441FB2
:1002C000551F60E074E284EF90E00E9445082150E1
:1002D000310920C0599828813981C901A0E0B0E0D6
:1002E000880F991FAA1FBB1F880F991FAA1FBB1F2A
:1002F0009C01AD01220F331F441F551F220F331FD6
:10030000441F551F60E074E284EF90E00E944508AE
:100310002150310929B930BD9B81973041F480B516
:10032000826080BD80B5846080BD529A05C080B572
:10033000990F8068892B80BD80B59C81990F990F9A
:10034000990F8068892B80BD20B59D8130E1939FF6
:10035000C0011124922F9068892B80BD8E8180FD71
:10036000539A80FF53988F8180FD549A80FF549850
:10037000DF91CF9108955D9BFECF8CB908950F93C7
:100380001F93CF93FC018081882359F08F01C0E037
:100390000E94BB01CF5FF801EC0FF11D808181113C
:1003A000F7CFCF911F910F910895CF93DF93EC0179
:1003B0000E946F048091940090919500892B31F4F4
:1003C00089E990E090939500809394002097C9F07C
:1003D00080919600909197009E01280F391F2B3D28
:1003E00045E0340788F48217930788F4C09194009D
:1003F000D0919500C80FD91F309397002093960095
:1004000008C0C0E0D0E005C0C0E0D0E002C0C0E05D
:10041000D0E00E949405CE01DF91CF910895089518
:10042000FC010396928381832FEF3FEF3483238374
:10043000968385839087878310820895FC011186B7
:1004400010860895CF93DF93EB01488159814F3F88
:100450002FEF520721F4FC01A781B0850DC0DC010C
:10046000139601C0DF011296ED91FC911397208144
:10047000318142175307B0F71296ED91FC91139713
:10048000FB83EA83D583C483BD83AC831396DC935B
:10049000CE93129799878887FC0120812F5F208354
:1004A000DF91CF910895CF93DF93FC01A085B185B3
:1004B000C281D381848195819D838C83C481D581C0
:1004C000828193819B838A8311968D919C9112974F
:1004D000E817F90731F48481958112969C938E93E5
:1004E0001197118610868C9181508C938C91DF919D
:1004F000CF910895E0919806F0919906808181113D
:1005000007C08FEF9FEF909378068093770608954A
:10051000E0919806F09199060580F681E02D8081A2
:1005200091819093780680937706089504E816E009
:100530000F2EFCEAEF2EF6E0FF2EF02D80918306C1
:10054000882329F10FB6F8940F92D8011596ED91F2
:10055000FC911697C681D781CE0102960E94530264
:10056000809182068150809382068091830681501B
:10057000809383060F900FBE8F89988D0E940F0283
:10058000CE010E940F02809183068111DBCFF7011B
:100590008081823098F20E948D07D0CF0F931F93F5
:1005A000CF93DF93EC01009180061091810680913A
:1005B000D0069091D10602960E945302C00FD11F1F
:1005C000E091D006F091D106D383C283C017D10742
:1005D00068F46091D0067091D10680919606909152
:1005E00097066E5F7F4F0E94220217C06091D0066F
:1005F0007091D10680919806909199066E5F7F4F19
:100600000E9422028091770690917806C817D90738
:1006100020F4D0937806C0937706DF91CF911F9195
:100620000F9108954F925F926F927F928F929F9257
:10063000AF92BF92CF92DF92EF92FF920F93CF9340
:10064000DF934C016B015A012901CA010E94D501B7
:100650003C01892B09F406C186E290E00E94D50195
:10066000EC01892B59F0788E6F8A81E0A81AB108C5
:10067000A60CB71CC114D10429F420C0C3010E94E8
:100680000F02F0C0D6018C91898F8C918823A1F044
:10069000AE01465E5F4FF6013196B8E0CB0ED11C3D
:1006A000CF012191DA012D93AD01DC018C918823DA
:1006B00019F0EC15FD05A1F718A201C0198E043040
:1006C00008F003E00E8B6E01B2E0CB0ED11CC60128
:1006D0000E941E02CE010C960E941E02D987C88776
:1006E00084E090E0801B91099D878C87DB8BCA8B0F
:1006F00084E0FE01B196DF011D928A95E9F71DA203
:10070000A201B401C5010E94EC0699838883E1141B
:10071000F10419F0F701D183C0830FB6F8940F925A
:10072000809182068F5F809382068091D00690919F
:10073000D106892BA9F5D093D106C093D00680911C
:1007400082068130E9F58CEA96E00E94100285EB82
:1007500096E00E9410028EEB96E00E94100287EC59
:1007600096E00E94100283EA96E00E9410028AE955
:1007700096E00E9410028DE896E00E94100284E844
:1007800096E00E94100283EA96E090939906809387
:1007900098068AE996E0909397068093960610C093
:1007A00080917E0681110CC0E091D006F091D106B7
:1007B00096898E89891720F0D093D106C093D006F0
:1007C000809179068F5F809379068E8990917F065C
:1007D000981710F480937F0690E0FC01EE0FFF1F46
:1007E000EE0FFF1FEE0FFF1F8E0F9F1FFC01E45542
:1007F000F94F0180F281E02DFD83EC8384819581A6
:100800009F838E83A481B5811396DC92CE9212973A
:10081000D582C482EE89F0E0CF01880F991F880F3E
:10082000991F880F991FE80FF91FE455F94FFB87AF
:10083000EA8780818F5F80830F900FBE80917E0654
:10084000882361F0E091D006F091D10696898E89D7
:10085000981730F40E948D0781E005C081E003C045
:1008600081E001C08FEFDF91CF910F91FF90EF906A
:10087000DF90CF90BF90AF909F908F907F906F90C0
:100880005F904F900895EF92FF920F930F2EF5E730
:10089000EF2EF6E0FF2EF02D00E020E030E045E501
:1008A00050E065E870E086E992E00E941203813032
:1008B00081F4F8948FEF9FEF9093780680937706FA
:1008C00081E080937E0610928106109280060E943D
:1008D0005807809160000F91FF90EF9008958091EC
:1008E00074068F5F809374060895EF92FF920F93C2
:1008F0001F93CF93DF9380917406811104C1C0913F
:100900008006D09181067E018FEFE81AF80AF092F6
:100910008106E0928006E114F104B9F48091980612
:1009200090919906209196063091970630939906FA
:1009300020939806909397068093960680917A0666
:100940008F5F80937A060E947A0280917706909159
:100950007806E816F90610F480E0B9C080E061E09E
:10096000E0919806F09199069081911107C02FEFC0
:100970003FEF3093780620937706A9C0E091980660
:10098000F09199060580F681E02D0680F781E02D33
:1009900022813381E216F30628F4309378062093FF
:1009A000770695C0A285B38524813581468157811C
:1009B000E9015D834C832681378144815581E901BA
:1009C0005B834A83AF014E5F5F4F11962D913C913F
:1009D00012972417350731F42681378112963C93FC
:1009E0002E931197138612869C9191509C93A48903
:1009F000B589109719F12685378500891189E90194
:100A00001D830C832089318906851785E9011B83A5
:100A10000A8311960D911C9112979F01245F3F4FFD
:100A20000217130731F42089318912963C932E93D3
:100A30001197158A148A9C9191509C9326899091C4
:100A40007F06921710F420937F0630E0D901AA0F99
:100A5000BB1FAA0FBB1FAA0FBB1F2A0F3B1FD90129
:100A6000A455B94F11960D90BC91A02DB583A483C8
:100A700014962D913C9115973783268314962D91CA
:100A80003C911597E9015B834A8315965C934E93DD
:100A90001497A689B0E09D01220F331F220F331F48
:100AA000220F331FA20FB31FA455B94FB387A287DC
:100AB0009C919F5F9C93A091D006B091D10626890E
:100AC00056969C91291708F44BCF862F49CFE09179
:100AD000D006F091D106268930E0F901EE0FFF1F14
:100AE000EE0FFF1FEE0FFF1F2E0F3F1FF901E45502
:100AF000F94F9081923008F081E090917B06992324
:100B000061F081E00AC080917C0690917D0601969B
:100B100090937D0680937C0680E0DF91CF911F91BA
:100B20000F91FF90EF9008951F93CF93DF930FB62F
:100B3000F8940F928091740681508093740680918E
:100B400074068111C6C08091820681119BC0C4C009
:100B5000DB011596ED91FC9116970680F781E02D4B
:100B6000A489B5898685978520893189EC013D83E3
:100B70002C838089918926853785EC013B832A83E4
:100B8000CF010C9611962D913C9112972817390799
:100B900031F48089918912969C938E931197158ACE
:100BA000148A8C9181508C93A285B3858481958120
:100BB00026813781EC013D832C83868197812481B6
:100BC0003581EC013B832A839F012E5F3F4F1196B5
:100BD0008D919C9112978217930731F486819781AA
:100BE00012969C938E931197138612868C91815046
:100BF0008C93868990917F06981710F480937F06D6
:100C000090E0DC01AA0FBB1FAA0FBB1FAA0FBB1FDE
:100C10008A0F9B1FDC01A455B94F11960D90BC9112
:100C2000A02DB583A48314968D919C9115979783DD
:100C3000868314968D919C911597EC013B832A83B2
:100C400015963C932E931497A689B0E0CD01880F9A
:100C5000991F880F991F880F991FA80FB91FA455B6
:100C6000B94FB387A2878C918F5F8C93A091D006E8
:100C7000B091D106968956968C91981740F0409382
:100C80007B0605C0E0E0F0E06DE876E041E0DB01E6
:100C90008C9181115DCFEF2B11F00E947A02C091EF
:100CA0007C06D0917D06209761F011E00E947504CA
:100CB000811110937B062197C9F710927D0610923F
:100CC0007C0680917B06882331F00E948D0781E0AD
:100CD00003C080E001C080E00F900FBEDF91CF9194
:100CE0001F910895CF93DF93EC01892B51F00E945F
:100CF0006F0460E0CE010E94CE020E949405811133
:100D000002C00E948D07DF91CF91089580917406F3
:100D1000882321F081E080937B06089510927B0662
:100D200020917F06822F90E0FC01EE0FFF1FEE0F57
:100D3000FF1FEE0FFF1FE80FF91FE455F94F308139
:100D4000311111C02150822F90E0FC01EE0FFF1FE6
:100D5000EE0FFF1FEE0FFF1FE80FF91FE455F94FCD
:100D60003081332379F3AC01440F551F440F551FD5
:100D7000440F551F480F591FDA01A455B94F11965A
:100D8000ED91FC9112970280F381E02D1296FC9375
:100D9000EE9311974155594FE417F50729F4428115
:100DA0005381FD0152834183FC01EE0FFF1FEE0FC3
:100DB000FF1FEE0FFF1F8E0F9F1FFC01E455F94F21
:100DC0000180F281E02D868197819093D1068093F6
:100DD000D00620937F06089531E1FC0130833197DE
:100DE00022E220833197A3E3A08331976083319778
:100DF000708331971082319760E860833197108259
:100E0000319762E06083319763E06083319764E0FB
:100E10006083319765E06083319766E06083319746
:100E200067E06083319768E06083319769E06083B1
:100E3000319760E1608331973083319732E13083BD
:100E4000319733E13083319734E13083319735E1A5
:100E50003083319736E13083319737E130833197F2
:100E600038E13083319739E13083319730E2308394
:100E7000319731E2308331972083319723E2208309
:100E80003197408331975083319726E22083319701
:100E900027E22083319728E22083319729E22083BB
:100EA000319720E32083319721E3208386970895AB
:100EB0001BBC89EF8ABD8BE08EBD89B7806189BF7D
:100EC000A091D006B091D106CD91CDBFDD91DEBF0E
:100ED000FF91EF91DF91CF91BF91AF919F918F9152
:100EE0007F916F915F914F913F912F911F910F9142
:100EF000FF90EF90DF90CF90BF90AF909F908F903A
:100F00007F906F905F904F903F902F901F900F9029
:100F10000FBE0F90089581E008950F920FB6F894D8
:100F20000F921F9211242F923F924F925F926F92D5
:100F30007F928F929F92AF92BF92CF92DF92EF9269
:100F4000FF920F931F932F933F934F935F936F9352
:100F50007F938F939F93AF93BF93CF93DF93EF9341
:100F6000FF93A091D006B091D1060DB60D920EB6AA
:100F70000D920E948606A091D006B091D106CD9127
:100F8000CDBFDD91DEBFFF91EF91DF91CF91BF919A
:100F9000AF919F918F917F916F915F914F913F9111
:100FA0002F911F910F91FF90EF90DF90CF90BF9006
:100FB000AF909F908F907F906F905F904F903F90F9
:100FC0002F901F900F900FBE0F9008950F920FB6A5
:100FD000F8940F921F9211242F923F924F925F929A
:100FE0006F927F928F929F92AF92BF92CF92DF9239
:100FF000EF92FF920F931F932F933F934F935F9323
:101000006F937F938F939F93AF93BF93CF93DF9310
:10101000EF93FF93A091D006B091D1060DB60D923B
:101020000EB60D920E94750481110E948606A09151
:10103000D006B091D106CD91CDBFDD91DEBFFF913D
:10104000EF91DF91CF91BF91AF919F918F917F9160
:101050006F915F914F913F912F911F910F91FF9051
:10106000EF90DF90CF90BF90AF909F908F907F9048
:101070006F905F904F903F902F901F900F900FBEFA
:101080000F9008950E94E6071895A1E21A2EAA1B58
:10109000BB1BFD010DC0AA1FBB1FEE1FFF1FA21728
:1010A000B307E407F50720F0A21BB30BE40BF50B25
:1010B000661F771F881F991F1A9469F760957095AE
:1010C000809590959B01AC01BD01CF010895F894E6
:0210D000FFCF50
:1010D2000380250003000001015461736B310A0D86
:1010E200005461736B31005461736B320A0D00540A
:0A10F20061736B320049444C450065
:00000001FF
